:020000040000FA
:100000000200661107C001064922220107512000A3
:10001000FDC2AC8F99D200D2AC22D2A9D2AF22536A
:10002000C9FC320106AAE4FF01071E01001F0241BC
:10003000C000014300014400C1004100180041001C
:1000400016004200260000420028000042002A005C
:100050000042002C00000011000311001A11031DC2
:0200600080FB23
:100063000107FA75C7AA75C75575923F75C7AA7573
:10007300C75575A20775C7AA75C755759D0275C77C
:10008300AA75C75575C600787FE4F6D8FD75814417
:10009300020000C102000057E493A3F85407240CA4
:1000A300C8C333C4540F4420C8834004F4568001AA
:1000B30046F6DFE4800C0102040810204080900023
:1000C300002EE47E019360CCA3FF543F30E5095436
:1000D3001FFEE493A360010ECF54E0B4E026E49343
:1000E300FBA3E493FAA3E493F9A3E493C083C0824C
:1000F300120001A3D082D083A309E970010ADFEAC9
:10010300DEE880BE54C025E0602B408CE493A3FA64
:10011300E493A3F8E493A3C8C582C8CAC583CA7588
:100123009300F0759300A3C8C582C8CAC583CADF0C
:10013300E3DEE1808DE493A3F8E493A34003F68028
:1001430001F208DFF4020000C5EF8DF0A4A8F0CFA0
:100153008CF0A428CE8DF0A42EFE22C5F0F8A3E0E7
:1001630028F0C5F0F8E582158270021583E038F0B7
:1001730022A3F8E0C5F025F0F0E5821582700215A0
:1001830083E0C838F0E822A42582F582E5F03583C0
:10019300F583228B938A838982159353937FE47328
:1001A300BB0002F722BB8000500989828A838B93AC
:1001B3001593F02290000019EBF0A3EAF0A3E9F005
:1001C300A3ECF0A3EDF0E490000024F0A3F0FFFE15
:1001D3009000000075F00BEF11018AEE75F00BA48F
:1001E3002583F583759300A3E0FAA3E04A6010C367
:1001F300EF9402EE940050070FBF00010E80D1EF81
:1002030064024E70109000001704F090000024E484
:10021300F0A37402F09000001EE07002A3E07011DE
:10022300900000177402F090000024E4F0A374021D
:10023300F090000024E07004A3E064027003010363
:100243001390000019E0FBA3E0FAA3E0F99000008B
:100253000075F00BEF11018AEE75F00BA42583F501
:1002630083759300EBF0A3EAF0A3E9F09000001D7F
:10027300E02401FD9000001CE03400FC900000032A
:1002830075F00BEF11018AEE75F00BA42583F5834E
:10029300759300ECF0A3EDF09000001EE0FCA3E0EA
:1002A300FD9000000575F00BEF11018AEE75F00B60
:1002B300A42583F583759300ECF0A3EDF090000083
:1002C30020E0FCA3E0FD9000000775F00BEF1101A7
:1002D3008AEE75F00BA42583F583759300ECF0A3E8
:1002E300EDF090000022E0FCA3E0FD900000097512
:1002F300F00BEF11018AEE75F00BA42583F58375DE
:100303009300ECF0A3EDF090000024EEF0A3EFF0E7
:1003130090000024E0FEA3E0FF22E49000001BF025
:10032300A3F0C2A990000018E0D39400400CE0149D
:10033300F09000001BE4F0A304F0D2A99000001B8E
:10034300E07002A3E07003010469E490000019F077
:10035300A3F090000019E0FEA3E0FFC39402EE9423
:100363000040030104429000000075F00BEF1101FF
:100373008AEE75F00BA42583F583759300E0FBA348
:10038300E0FAA3E0F9EA494B700301042F9000005F
:100393000375F00BEF11018AEE75F00BA42583F5BD
:1003A3008375930074FFF5F011015E45F0707DC213
:1003B300A99000001604F0D2A990000019E0FEA352
:1003C300E09000000075F00B11018AEE75F00BA4AC
:1003D3002583F583759300E0FBA3E0FAA3E0F9110D
:1003E3000196C2A9E490000016F0D2A9900000196A
:1003F300E0FEA3E0FF9000000575F00B11018AEE0B
:1004030075F00BA42583F583759300E0FCA3E0FD51
:100413009000000375F00BEF11018AEE75F00BA449
:100423002583F583759300ECF0A3EDF09000001A9B
:10043300E004F0700790000019E004F0010355C2D6
:10044300A990000018E0D39400400EE014F090004F
:10045300001BE4F0A304F08008E49000001BF0A369
:10046300F0D2A901033F010009E4F59A75E2017591
:100473009300E54224E2F582E5413404F583759364
:10048300007469F0759300E54224E3F582E5413495
:1004930004F5837593007478F0759300E54224E4C2
:1004A300F582E5413404F5837593007401F0759387
:1004B30000E54224E5F582E5413404F583759300B4
:1004C300740EF0759300E54224E6F582E5413404A9
:1004D300F583759300E4F0759300E54224E7F58214
:1004E300E5413404F583759300741BF0759300E5BF
:1004F3004224E8F582E5413404F583759300E4F082
:10050300759300E54224E9F582E5413404F58375EA
:100513009300740CF0759300E54224EAF582E541FB
:100523003404F583759300E4F0759300E54224EBFE
:10053300F582E5413404F583759300740CF0E4F51A
:100543008E758966758855758CFF758AFF758DCE96
:1005530075C81275CDFF75CC2E7587C0759850750B
:10056300C05075B81075A810759E80D2AF75E80499
:10057300F5F8F5FBF5FC75FDFFF5FE7F4F11000E59
:100583007F4B01000E9000002AE475F00111017405
:10059300FEE5F064144E700790000017E060F990D8
:1005A30000002AE07004A3E0643C700280FE900027
:1005B3000017E0FE702190000026E07004A3E064C1
:1005C30001900000267007F0A3F07F41806CE4F0F7
:1005D300A304F07F42806390000029E004F07007D9
:1005E30090000028E004F0EE75F002A4FF900000F4
:1005F30028E0FCA3E0FDC39FEC95F0500CE49000D1
:100603000026F0A3F07F31803190000017E075F0F1
:1006130004A4FFC3ED9FEC95F0502290000026E068
:100623007004A3E06401900000267007F0A3F07F3C
:10063300328007E4F0A304F07F3301000EE490005E
:100643000028F0A3F0229000002EE0146005800043
:100653000106E911046C11002611077911000A7BC8
:10066300817A0779E19000001E7405F0A374DCF031
:10067300A3E4F0A3740AF0E4A3F0A3F0FDFC1101DA
:10068300B77B817A0579889000001E7403F0A37408
:10069300E8F0A3E4F0A37414F0E4A3F0A3F0FDFCEA
:1006A3001101B71107E122C0E0C0D075D010309816
:1006B30029C298E59E541FFF30E405759E90801A69
:1006C300EF6017AE43054374212EF8A699E543C3A3
:1006D300942040037543001F80E6309904C299C2F9
:1006E30000D0D0D0E0321107E111000AE4FBFA9008
:1006F300000019E0FEA3E0FF7C007D0311014C9094
:10070300000019EEF0A3EFF01107E10BBB00010AA3
:10071300BA0BDCBBB8D911079D80D1C2ED538E3F14
:10072300EF14600A14600C1460112403800A438ED2
:10073300808008438E408003438EC0C2AF75EBAA0E
:1007430075EB5575D803D2AF43F820D2ED22C0E044
:10075300C093C083C082C0D090000018E004F09022
:10076300000016E0B40104A37403F0D0D0D082D00B
:1007730083D093D0E032E490000017F0FFEF75F0E0
:100783000BA42400F582E43400F583759300E4F0B0
:10079300A3F0A3F00FEFB402E4229000002CE0706A
:1007A30004A3E064019000002C7007F0A3F07F30F5
:1007B3008007E4F0A304F07F3111000E22E49000DF
:1007C3000019F0C2EDC2AF75EBAA75EB55F5D8D29F
:1007D300AF9000002E30DA02F0227401F022C2ED55
:1007E300C2AF75EBAA75EB5575D803D2AFE59C7014
:0B07F30003759C01D2ED22759C0032C2
:00000001FF
